:100A90007374617274202E2E2E0A00253032582075
:100AA000204144435F444154413120253034582093
:100AB000200A001201100100000008315107200037
:100AC000000000000109022900010104A02309041B
:100AD000000002030000050921000100012222009C
:100AE00007058203400018070502034000180600AE
:100AF000FF0901A101090215002600FF75089540B4
:100B00008106090215002600FF750895409106C070
:0A0C910075A15575A1AA75A1FF22F7
:0E0C6A00EF4E600905A1EF1F70F61E80F32209
:100C4200AD07AC06ED4C600E7FE87E03120C6AED38
:070C52001D70F11C80EE2271
:0D0C780043C60143C40843C50C43CE1022FF
:1009F700C29FD29EC29DC2CDC2CC4387809000D2F7
:100A070012092800000082E47B0AFAF9F89000D264
:100A1700E0FCA3E0FDA3E0FEA3E0FF12088A90003C
:100A2700D6EBF09000D2E0FCA3E0FDA3E0FEA3E04C
:100A3700FFE47B0AFAF9F812088A9000D212091C1F
:100A47009000D6E0C3940574809480401F9000D234
:100A5700E0FCA3E0FDA3E0FEA3E02401FFE43EFEEB
:100A6700E43DFDE43CFC9000D212091CE589540FDB
:100A77004420F58943C9A09000D2A3A3A3E0F404BE
:080A8700F58DD28ED299D29CAC
:010A8F002244
:080C9B003098FDC298AF9922C8
:080CA3008F993099FDD29922CE
:100C0F00E4F5E253E27F43E229F5E353E4BF53E215
:0B0C1F00BF53E4FB43E43043E4012238
:100C590043E10443E10243E10143D81FD2EAD2AFA1
:010C69002268
:100B8700CE7400CECF7410CF90244CEEF0A3EFF0CC
:100B9700902447E04404F0E04408F0E054FEF07588
:100BA700D412CE7400CECF7400CFA3EEF0A3EFF033
:0B0BB700902446E054F3F075DC0222AD
:100BE9009000D2EFF07E00C87450C8CC7400CCCD10
:100BF9007401CD7B017A0079901208129000D2E03D
:060C0900F5D553D4FC22D6
:0300430002004672
:0D004600C0E0C0F0C083C082C0D075D008FB
:1000530020D903020392E5D9543F7003020382249B
:10006300E0700302030424F06015240E600302030E
:100073008E75D500E5D454FC4402F5D402038E906A
:1000830000D0E5D1F0E0640860030202CC900006E2
:10009300E09000FDF0900007E0700D9000FDE0D3CC
:1000A300947F7480948040069000FD747FF09000EC
:1000B300D0E4F0900000E0546060030202CC9000B2
:1000C30001E09000FEF0B40B0040030202CA90006E
:1000D300D8F82828730202A90201F20202CA020216
:1000E3002D0202CA0201BB0200F90202CA0201C6C2
:1000F3000201E70202D2900003E024FE601E24E026
:1001030060302421704890010974FFF0A3740AF051
:10011300A374B3F09000D07412F080389001097486
:10012300FFF0A3740AF0A374C5F09000D07429F013
:10013300802290010974FFF0A3740AF0A374EEF017
:100143009000D07422F090010C7401F080069000AE
:10015300D074FFF09000D0E0FF9000FDE0D39F400B
:1001630002EFF09000FDE0FFC39408748094804098
:10017300077E08CFEECF80009000D0EFF07E00C85E
:100183007400C8CC7400CCCD7401CD900109E0FBA0
:10019300A3E0FAA3E0F91208129000FDE0FF90003B
:1001A300D0E0FEC3EF9E9000FDF0EEFF90010AE465
:1001B3008FF01208380202D2900002E09000FDF0A6
:1001C3000202D29000FAE0900000F09000FDE0C33C
:1001D30094017480948050030202D29000D0740181
:1001E300F00202D2900002E09000FAF00202D290F4
:1001F3000000E0541F6402702E900004E024FE60AF
:100203001D2481600E14701CE5D454BC4402F5D443
:100213000202D2E5D254BC4402F5D20202D253D434
:10022300730202D20202CC0202CC900000E0541FFF
:10023300FD7C00701E900003E0FE900002E0FBEBEB
:1002430064014E700C900ACC9330E5030202D28015
:10025300788076ED64024C704B900003E0FE9000D2
:1002630002E0FDED4E703B900005E0FE900004E0DF
:10027300FDEDFFEE702AEF24FE6011248160171458
:10028300701EE5D454BF4403F5D48043E5D4547FB2
:10029300440CF5D48039E5D254BF4403F5D2802F02
:1002A300802780258023900000E4F0A3F09000FDD8
:1002B300E0FFC39402748094809000D040057402E0
:1002C300F0800CEFF0800880009000D074FFF09075
:1002D30000D0E0FF7E00F4700C9000FE74FFF07518
:1002E300DCCF02038ED3EF9408EE64809480500831
:1002F3009000D0E0F5DD800375DD0075DCC00203FE
:100303008E9000FEE024FB606014706B9000FDE0B3
:10031300FFC394087480948040077E08CFEECF809B
:10032300009000D0EFF07E00C87400C8CC7400CCFD
:10033300CD7401CD900109E0FBA3E0FAA3E0F9122B
:1003430008129000FDE0FF9000D0E0FEC3EF9E9006
:1003530000FDF0EEFF90010AE48FF01208389000E0
:10036300D0E0F5DD63DC408022E5E35480FF9000BC
:10037300FDE04FF5E3800375DD0075DC02800C9032
:1003830000D0E5D1F075DD0075DC00C2D9804030C6
:10039300D81475DC0275D21075D41275E300C2DA75
:1003A300C2D9C2D8802930DA23C2DAE5DA30E21FB3
:1003B300E5A220E7FB75A15575A1AA75EB814387DB
:0F03C3000275A15575A1AA75EB00800375D8FFCF
:0B03D200D0D0D082D083D0F0D0E03239
:100C2A00E4F5B943F60475EF0253F2F053F2CF43F9
:080C3A00F7047F64FE020C6A5E
:100003008FF37F0A7E00120C6A43F2807F057E0025
:10001300120C6A53F27FE5F1541060FA43F1109029
:1000230000FFE5F5F0A3E5F4F09000FFE0FCA3E0AA
:0D003300FDEC900090F0CFEDCFA3EFF02298
:100B10007F1E7E00120C421209F77BFF7A0A799041
:100B2000120448120C2A9000FFE5F5F0A3E5F4F05A
:100B3000120C0F120B87120C59E4F5D3F5D5900067
:100B4000FCF090010CF090010CE060FA2080F77F3F
:100B5000011200037BFF7A0A799BE5F15403FF90B1
:100B600000D5E4F0A3EFF09000FFE0FFA3E09000D9
:100B7000D7CFF0A3EFF01204487F02120BE97F6495
:070B80007E00120C4280BF51
:03000000020C856A
:0C0C8500787FE4F6D8FD758121020B1089
:10074200E709F608DFFA8046E709F208DFFA803E99
:1007520088828C83E709F0A3DFFA8032E309F60886
:10076200DFFA8078E309F208DFFA807088828C83EE
:10077200E309F0A3DFFA806489828A83E0A3F608A2
:10078200DFFA805889828A83E0A3F208DFFA804C7C
:1007920080D280FA80C680D4806980F28033801053
:1007A20080A680EA809A80A880DA80E280CA8033BC
:1007B20089828A83ECFAE493A3C8C582C8CCC58334
:1007C200CCF0A3C8C582C8CCC583CCDFE9DEE78004
:1007D2000D89828A83E493A3F608DFF9ECFAA9F083
:1007E200EDFB2289828A83ECFAE0A3C8C582C8CCD9
:1007F200C583CCF0A3C8C582C8CCC583CCDFEADEF2
:10080200E880DB89828A83E493A3F208DFF980CC53
:1008120088F0EF60010E4E60C388F0ED2402B4044C
:100822000050B9F582EB2402B4040050AF232345F3
:060832008223900792737F
:10083800C5F0F8A3E028F0C5F0F8E582158270024B
:060848001583E038F022E8
:10084E0075F008758200EF2FFFEE33FECD33CDCC61
:10085E0033CCC58233C5829BED9AEC99E5829840E4
:10086E000CF582EE9BFEED9AFDEC99FC0FD5F0D6C1
:10087E00E4CEFBE4CDFAE4CCF9A88222B800C1B9EB
:10088E000059BA002DEC8BF084CFCECDFCE5F0CB29
:10089E00F97818EF2FFFEE33FEED33FDEC33FCEB62
:1008AE0033FB10D703994004EB99FB0FD8E5E4F91D
:1008BE00FA227818EF2FFFEE33FEED33FDEC33FC0A
:1008CE00C933C910D7059BE99A4007EC9BFCE99AFE
:1008DE00F90FD8E0E4C9FAE4CCFB2275F010EF2F43
:1008EE00FFEE33FEED33FDCC33CCC833C810D70743
:1008FE009BEC9AE899400AED9BFDEC9AFCE899F87E
:0E090E000FD5F0DAE4CDFBE4CCFAE4C8F92210
:0C091C00ECF0A3EDF0A3EEF0A3EFF0224E
:10092800A8828583F0D083D08212093F12093F1232
:10093800093F12093FE473E493A3C583C5F0C58357
:10094800C8C582C8F0A3C583C5F0C583C8C582C819
:01095800227C
:1003DD00E51024D5F582E43400F583E00510229074
:1003ED0000D23007039000D5E475F0011209B10277
:1003FD0009592000E97F2ED2008018EF540F249068
:10040D00D43440D4FF30040BEF24BFB41A00500392
:10041D002461FFE511600215110514E51470020544
:10042D001330070E9000D2E475F0011209B1EF02FE
:10043D00099F020BC27403D2078003E4C207F510B3
:10044D009000D21209C8E4F511F513F514E5116009
:10045D00077F2012042080F57512FFC201C200C271
:10046D0002C203C205C206C2081203ECFF700D30B2
:10047D0007057F00120431AF14AE1322B4255FC2FD
:10048D00D5C2041203ECFF24D0B40A00501A75F043
:10049D000A781130D50508B6FF0106C6A426F62048
:1004AD00D5047002D20380D924CFB41A00EF5004C2
:1004BD00C2E5D204020632D20180C6D20080C0D27B
:1004CD000280BCD2D580BAD20580B47F2012042020
:1004DD002002077401B5110040F11203DDFF120473
:1004ED002002045AD208D20680951203DDFB1203B6
:1004FD00DDFA1203DDF94A4B700679037A077BFFAB
:10050D0020022EE511602A7E008E8275830012096D
:10051D007260060EEE651270F0C2D5EBC0E0EAC057
:10052D00E0E9C0E0EE120679D0E0F9D0E0FAD0E0D3
:10053D00FB120959FF60AAEBC0E0EAC0E0E9C0E098
:10054D00120420D0E02401F9D0E03400FAD0E0FB11
:10055D00E5120460DCD512D980877BFF7A067975A8
:10056D00D202809C791080027908C206C2088008E8
:10057D00D2D5790A8004790AC2D5E512047002F544
:10058D0012E4FAFDFEFF1203DDFC7B0820011312BD
:10059D0003DDFD7B1030000A1203DDFE1203DDFFCB
:1005AD007B20EC3382D592D55013C3E43000069FE7
:1005BD00FFE49EFEE42001039DFDE49CFCE4CBF8EA
:1005CD00C201EC700CCFCECDCCE824F8F870F380DE
:1005DD0017C3EF33FFEE33FEED33FDEC33FCEB339E
:1005ED00FB994002FB0FD8E9EB300105F8D0E0C4D0
:1005FD0048B201C0E00AEC4D4E4F78207B0070C22E
:10060D00EAB5120040BCC0E012067BD0F0D0E0206D
:10061D000104C4C0E0C4B201C0F0120409D0F0D589
:10062D00F0EB02045A1209D104F75305715804C8AE
:10063D004C04C44205754F057D44057D4904DD43D9
:08064D000583550567460567AA
:100655004505674707235004CC2D04D02E04F32B02
:1006650004D42304F120070C2A048C48000004EB71
:100675003F3F3F00790AA2D5200314300509B91080
:10068500020404B9080104A2D52006025001042081
:1006950002689202B511005034C0E07F2030031982
:1006A5007F30A20272067205500F1206D2C202C234
:1006B50006C205C2087F30800F300503E9C0E0128D
:1006C5000420300503D0E0F9D0E0B511CC30051792
:1006D5007F30B9100C1204207F583004077F7880D2
:1006E50003B908031204203002057F2D0204207F80
:1006F500202008F87F2B2006F322920280CF286E57
:10070500756C6C2900D2011203DD3001F8C2017845
:100715001130D50108F602048C2D504349581203B7
:10072500DD2403B405004001E490071E9312041173
:0D073500743A120411D2037511040205710B
:10095900BB010689828A83E0225002E722BBFE029C
:09096900E32289828A83E49322CF
:10097200BB010CE58229F582E5833AF583E022503A
:1009820006E92582F8E622BBFE06E92582F8E22284
:0D099200E58229F582E5833AF583E493229E
:10099F00BB010689828A83F0225002F722BBFE0137
:0209AF00F32231
:1009B100F8E0FBA3A3E0F925F0F0E58215827002CF
:0709C1001583E0FA38F02273
:0909C800EBF0A3EAF0A3E9F02230
:1009D100D083D082F8E4937012740193700DA3A3B5
:1009E10093F8740193F5828883E4737402936860C9
:0609F100EFA3A3A380DFC9
:100BC200EFB40A07740D120BCD740A309811A8996C
:100BD200B8130CC2983098FDA899C298B811F63093
:070BE20099FDC299F599226B
:00000001FF
